{"abi":[{"type":"constructor","inputs":[],"stateMutability":"nonpayable"},{"type":"function","name":"MAX_UINT112","inputs":[],"outputs":[{"name":"","type":"uint256","internalType":"uint256"}],"stateMutability":"view"},{"type":"function","name":"MINIMUM_LIQUIDITY","inputs":[],"outputs":[{"name":"","type":"uint256","internalType":"uint256"}],"stateMutability":"view"},{"type":"function","name":"addLiquidity","inputs":[{"name":"amount0","type":"uint256","internalType":"uint256"},{"name":"amount1","type":"uint256","internalType":"uint256"}],"outputs":[],"stateMutability":"nonpayable"},{"type":"function","name":"factory","inputs":[],"outputs":[{"name":"","type":"address","internalType":"contract UniswapV2Factory"}],"stateMutability":"view"},{"type":"function","name":"ghostBalances","inputs":[{"name":"","type":"address","internalType":"address"}],"outputs":[{"name":"","type":"uint256","internalType":"uint256"}],"stateMutability":"view"},{"type":"function","name":"ghostTotalSupply","inputs":[],"outputs":[{"name":"","type":"uint256","internalType":"uint256"}],"stateMutability":"view"},{"type":"function","name":"initialK","inputs":[],"outputs":[{"name":"","type":"uint256","internalType":"uint256"}],"stateMutability":"view"},{"type":"function","name":"mint","inputs":[{"name":"to","type":"address","internalType":"address"}],"outputs":[{"name":"liquidity","type":"uint256","internalType":"uint256"}],"stateMutability":"nonpayable"},{"type":"function","name":"pair","inputs":[],"outputs":[{"name":"","type":"address","internalType":"contract UniswapV2Pair"}],"stateMutability":"view"},{"type":"function","name":"property_constantProductFormula","inputs":[],"outputs":[{"name":"","type":"bool","internalType":"bool"}],"stateMutability":"view"},{"type":"function","name":"property_kLastConsistency","inputs":[],"outputs":[{"name":"","type":"bool","internalType":"bool"}],"stateMutability":"view"},{"type":"function","name":"property_liquidityTokensConservation","inputs":[],"outputs":[{"name":"","type":"bool","internalType":"bool"}],"stateMutability":"view"},{"type":"function","name":"property_minimumLiquidityLocked","inputs":[],"outputs":[{"name":"","type":"bool","internalType":"bool"}],"stateMutability":"view"},{"type":"function","name":"property_noOverflowInReserves","inputs":[],"outputs":[{"name":"","type":"bool","internalType":"bool"}],"stateMutability":"view"},{"type":"function","name":"property_noTokenLoss","inputs":[],"outputs":[{"name":"","type":"bool","internalType":"bool"}],"stateMutability":"view"},{"type":"function","name":"property_priceAccumulatorIncreases","inputs":[],"outputs":[{"name":"","type":"bool","internalType":"bool"}],"stateMutability":"view"},{"type":"function","name":"property_reservesMatchBalances","inputs":[],"outputs":[{"name":"","type":"bool","internalType":"bool"}],"stateMutability":"view"},{"type":"function","name":"property_swapAmountBounds","inputs":[],"outputs":[{"name":"","type":"bool","internalType":"bool"}],"stateMutability":"view"},{"type":"function","name":"property_totalSupplyConsistency","inputs":[],"outputs":[{"name":"","type":"bool","internalType":"bool"}],"stateMutability":"view"},{"type":"function","name":"removeLiquidity","inputs":[{"name":"liquidity","type":"uint256","internalType":"uint256"}],"outputs":[],"stateMutability":"nonpayable"},{"type":"function","name":"skim","inputs":[],"outputs":[],"stateMutability":"nonpayable"},{"type":"function","name":"swap","inputs":[{"name":"amount0Out","type":"uint256","internalType":"uint256"},{"name":"amount1Out","type":"uint256","internalType":"uint256"},{"name":"useCallback","type":"bool","internalType":"bool"}],"outputs":[],"stateMutability":"nonpayable"},{"type":"function","name":"sync","inputs":[],"outputs":[],"stateMutability":"nonpayable"},{"type":"function","name":"token0","inputs":[],"outputs":[{"name":"","type":"address","internalType":"contract ERC20"}],"stateMutability":"view"},{"type":"function","name":"token1","inputs":[],"outputs":[{"name":"","type":"address","internalType":"contract ERC20"}],"stateMutability":"view"},{"type":"function","name":"totalLiquidityProvided","inputs":[],"outputs":[{"name":"","type":"uint256","internalType":"uint256"}],"stateMutability":"view"},{"type":"function","name":"totalLiquidityRemoved","inputs":[],"outputs":[{"name":"","type":"uint256","internalType":"uint256"}],"stateMutability":"view"},{"type":"function","name":"uniswapV2Call","inputs":[{"name":"sender","type":"address","internalType":"address"},{"name":"amount0","type":"uint256","internalType":"uint256"},{"name":"amount1","type":"uint256","internalType":"uint256"},{"name":"data","type":"bytes","internalType":"bytes"}],"outputs":[],"stateMutability":"nonpayable"}],"bytecode":{"object":"0x60806040523480156200001157600080fd5b503060405162000021906200034a565b6200002d9190620003f7565b604051809103906000f0801580156200004a573d6000803e3d6000fd5b50600080546001600160a01b0319166001600160a01b03929092169190911790556040516b033b2e3c9fd0803ce800000090620000879062000358565b6200009391906200044c565b604051809103906000f080158015620000b0573d6000803e3d6000fd5b50600280546001600160a01b0319166001600160a01b03929092169190911790556040516b033b2e3c9fd0803ce800000090620000ed9062000358565b620000f991906200044c565b604051809103906000f08015801562000116573d6000803e3d6000fd5b50600380546001600160a01b0319166001600160a01b03928316179081905560025490821691161115620001765760028054600380546001600160a01b03198084166001600160a01b038381169190911790955516929091169190911790555b600080546002546003546040516364e329cb60e11b81526001600160a01b039384169363c9c6539693620001b4939082169291169060040162000407565b602060405180830381600087803b158015620001cf57600080fd5b505af1158015620001e4573d6000803e3d6000fd5b505050506040513d601f19601f820116820180604052506200020a919081019062000386565b600180546001600160a01b0319166001600160a01b03838116919091179182905560025460405163095ea7b360e01b815293945081169263095ea7b3926200025b921690600019906004016200042d565b602060405180830381600087803b1580156200027657600080fd5b505af11580156200028b573d6000803e3d6000fd5b505050506040513d601f19601f82011682018060405250620002b19190810190620003af565b5060035460015460405163095ea7b360e01b81526001600160a01b039283169263095ea7b392620002ec92911690600019906004016200042d565b602060405180830381600087803b1580156200030757600080fd5b505af11580156200031c573d6000803e3d6000fd5b505050506040513d601f19601f82011682018060405250620003429190810190620003af565b5050620004af565b612aa9806200295083390190565b610afb80620053f983390190565b805162000373816200048a565b92915050565b80516200037381620004a4565b6000602082840312156200039957600080fd5b6000620003a7848462000366565b949350505050565b600060208284031215620003c257600080fd5b6000620003a7848462000379565b620003db816200045c565b82525050565b620003db816200047d565b620003db816200047a565b60208101620003738284620003d0565b60408101620004178285620003d0565b620004266020830184620003d0565b9392505050565b604081016200043d8285620003d0565b620004266020830184620003ec565b60208101620003738284620003e1565b600062000373826200046e565b151590565b6001600160a01b031690565b90565b600062000373826200047a565b62000495816200045c565b8114620004a157600080fd5b50565b620004958162000469565b61249180620004bf6000396000f3fe608060405234801561001057600080fd5b50600436106101c45760003560e01c80639c71d085116100f9578063c45a015511610097578063dfed134811610071578063dfed1348146102fd578063f10eb76514610305578063fca07d511461030d578063fff6cae914610315576101c4565b8063c45a0155146102e5578063d21220a7146102ed578063d4748d49146102f5576101c4565b8063a6066586116100d3578063a6066586146102c5578063a8aa1b31146102cd578063b4b01d8f146102d5578063ba9a7a56146102dd576101c4565b80639c71d0851461028c5780639c8f9f231461029f5780639cd441da146102b2576101c4565b80635e07a099116101665780636821e429116101405780636821e4291461026157806368fe7807146102695780636a627842146102715780637132b22d14610284576101c4565b80635e07a0991461023c5780636062dfb81461025157806364c9aa2214610259576101c4565b80631dd19cb4116101a25780631dd19cb41461021157806328778ad7146102195780632bec60fe1461022157806332acae4114610234576101c4565b80630dfe1681146101c957806310d1e85c146101e75780631618fd4b146101fc575b600080fd5b6101d161031d565b6040516101de91906122c0565b60405180910390f35b6101fa6101f5366004611ef4565b61032c565b005b6102046104d2565b6040516101de91906122b2565b6101fa6105f2565b610204610656565b6101fa61022f366004612083565b6107a9565b610204610a85565b610244610c8b565b6040516101de919061233e565b610204610c96565b610204610d54565b610204610edb565b6102046110aa565b61024461027f366004611ece565b611244565b6102446112d6565b61024461029a366004611ece565b6112dc565b6101fa6102ad366004611fdd565b6112ee565b6101fa6102c0366004612019565b61156e565b610204611841565b6101d1611930565b61024461193f565b610244611945565b6101d161194b565b6101d161195a565b610244611969565b61024461196f565b610204611975565b610204611a6d565b6101fa611b7f565b6002546001600160a01b031681565b6001546001600160a01b0316331461035f5760405162461bcd60e51b8152600401610356906122fe565b60405180910390fd5b83156104155760006103e561037c866103e863ffffffff611bcf16565b8161038357fe5b6002546001805460405163a9059cbb60e01b8152949093040193506001600160a01b039081169263a9059cbb926103c09216908590600401612297565b602060405180830381600087803b1580156103da57600080fd5b505af11580156103ee573d6000803e3d6000fd5b505050506040513d601f19601f820116820180604052506104129190810190611f72565b50505b82156104cb5760006103e5610432856103e863ffffffff611bcf16565b8161043957fe5b6003546001805460405163a9059cbb60e01b8152949093040193506001600160a01b039081169263a9059cbb926104769216908590600401612297565b602060405180830381600087803b15801561049057600080fd5b505af11580156104a4573d6000803e3d6000fd5b505050506040513d601f19601f820116820180604052506104c89190810190611f72565b50505b5050505050565b600080600160009054906101000a90046001600160a01b03166001600160a01b0316635909c0d56040518163ffffffff1660e01b815260040160206040518083038186803b15801561052357600080fd5b505afa158015610537573d6000803e3d6000fd5b505050506040513d601f19601f8201168201806040525061055b9190810190611ffb565b90506000600160009054906101000a90046001600160a01b03166001600160a01b0316635a3d54936040518163ffffffff1660e01b815260040160206040518083038186803b1580156105ad57600080fd5b505afa1580156105c1573d6000803e3d6000fd5b505050506040513d601f19601f820116820180604052506105e59190810190611ffb565b905060015b925050505b90565b60015460405163bc25cf7760e01b81526001600160a01b039091169063bc25cf779061062290309060040161227b565b600060405180830381600087803b15801561063c57600080fd5b505af1158015610650573d6000803e3d6000fd5b50505050565b6000806000600160009054906101000a90046001600160a01b03166001600160a01b0316630902f1ac6040518163ffffffff1660e01b815260040160606040518083038186803b1580156106a957600080fd5b505afa1580156106bd573d6000803e3d6000fd5b505050506040513d601f19601f820116820180604052506106e19190810190611f90565b50915091506103e8600160009054906101000a90046001600160a01b03166001600160a01b03166318160ddd6040518163ffffffff1660e01b815260040160206040518083038186803b15801561073757600080fd5b505afa15801561074b573d6000803e3d6000fd5b505050506040513d601f19601f8201168201806040525061076f9190810190611ffb565b11156107a0576000826001600160701b031611801561079757506000816001600160701b0316115b925050506105ef565b60019250505090565b600080600160009054906101000a90046001600160a01b03166001600160a01b0316630902f1ac6040518163ffffffff1660e01b815260040160606040518083038186803b1580156107fa57600080fd5b505afa15801561080e573d6000803e3d6000fd5b505050506040513d601f19601f820116820180604052506108329190810190611f90565b5091509150816001600160701b0316851061084c57600094505b806001600160701b0316841061086157600093505b8415801561086d575083155b15610879575050610a80565b61089b85600060026001600160701b0386165b046001600160701b0316611c0c565b94506108b484600060026001600160701b03851661088c565b935060008086158015906108c6575085155b15610978576108e887846001600160701b0316866001600160701b0316611c37565b60035460015460405163a9059cbb60e01b81529293506001600160a01b039182169263a9059cbb926109209216908590600401612297565b602060405180830381600087803b15801561093a57600080fd5b505af115801561094e573d6000803e3d6000fd5b505050506040513d601f19601f820116820180604052506109729190810190611f72565b506109e9565b600086118015610986575086155b156109e0576109a886856001600160701b0316856001600160701b0316611c37565b60025460015460405163a9059cbb60e01b81529294506001600160a01b039182169263a9059cbb926109209216908690600401612297565b50505050610a80565b60608515610a1257604051602001610a009061232e565b60405160208183030381529060405290505b60015460405163022c0d9f60e01b81526001600160a01b039091169063022c0d9f90610a48908b908b903090879060040161234c565b600060405180830381600087803b158015610a6257600080fd5b505af1158015610a76573d6000803e3d6000fd5b5050505050505050505b505050565b6002546001546040516370a0823160e01b81526000928392610b9e926001600160a01b03928316926370a0823192610ac29291169060040161227b565b60206040518083038186803b158015610ada57600080fd5b505afa158015610aee573d6000803e3d6000fd5b505050506040513d601f19601f82011682018060405250610b129190810190611ffb565b6002546040516370a0823160e01b81526001600160a01b03909116906370a0823190610b4290309060040161227b565b60206040518083038186803b158015610b5a57600080fd5b505afa158015610b6e573d6000803e3d6000fd5b505050506040513d601f19601f82011682018060405250610b929190810190611ffb565b9063ffffffff611cdc16565b6003546001546040516370a0823160e01b8152929350600092610c5d926001600160a01b03908116926370a0823192610bdd929091169060040161227b565b60206040518083038186803b158015610bf557600080fd5b505afa158015610c09573d6000803e3d6000fd5b505050506040513d601f19601f82011682018060405250610c2d9190810190611ffb565b6003546040516370a0823160e01b81526001600160a01b03909116906370a0823190610b4290309060040161227b565b90506b033b2e3c9fd0803ce800000082111580156105ea57506b033b2e3c9fd0803ce8000000101592915050565b6001600160701b0381565b6000806000600160009054906101000a90046001600160a01b03166001600160a01b0316630902f1ac6040518163ffffffff1660e01b815260040160606040518083038186803b158015610ce957600080fd5b505afa158015610cfd573d6000803e3d6000fd5b505050506040513d601f19601f82011682018060405250610d219190810190611f90565b50915091506001600160701b03826001600160701b0316111580156105ea57506001600160701b03908116111592915050565b600080600160009054906101000a90046001600160a01b03166001600160a01b0316637464fc3d6040518163ffffffff1660e01b815260040160206040518083038186803b158015610da557600080fd5b505afa158015610db9573d6000803e3d6000fd5b505050506040513d601f19601f82011682018060405250610ddd9190810190611ffb565b9050600080600160009054906101000a90046001600160a01b03166001600160a01b0316630902f1ac6040518163ffffffff1660e01b815260040160606040518083038186803b158015610e3057600080fd5b505afa158015610e44573d6000803e3d6000fd5b505050506040513d601f19601f82011682018060405250610e689190810190611f90565b50915091508260001415610e8257600193505050506105ef565b6000610ea06001600160701b0384811690841663ffffffff611bcf16565b9050610eb381600263ffffffff611bcf16565b8411158015610ed25750610ece84600263ffffffff611bcf16565b8111155b94505050505090565b6000806000600160009054906101000a90046001600160a01b03166001600160a01b0316630902f1ac6040518163ffffffff1660e01b815260040160606040518083038186803b158015610f2e57600080fd5b505afa158015610f42573d6000803e3d6000fd5b505050506040513d601f19601f82011682018060405250610f669190810190611f90565b506002546001546040516370a0823160e01b81529395509193506000926001600160a01b03918216926370a0823192610fa49291169060040161227b565b60206040518083038186803b158015610fbc57600080fd5b505afa158015610fd0573d6000803e3d6000fd5b505050506040513d601f19601f82011682018060405250610ff49190810190611ffb565b6003546001546040516370a0823160e01b81529293506000926001600160a01b03928316926370a082319261102e9291169060040161227b565b60206040518083038186803b15801561104657600080fd5b505afa15801561105a573d6000803e3d6000fd5b505050506040513d601f19601f8201168201806040525061107e9190810190611ffb565b9050836001600160701b03168210158015610ed25750826001600160701b031681101594505050505090565b600080600160009054906101000a90046001600160a01b03166001600160a01b03166318160ddd6040518163ffffffff1660e01b815260040160206040518083038186803b1580156110fb57600080fd5b505afa15801561110f573d6000803e3d6000fd5b505050506040513d601f19601f820116820180604052506111339190810190611ffb565b6001546040516370a0823160e01b81529192506000916001600160a01b03909116906370a0823190611169908490600401612289565b60206040518083038186803b15801561118157600080fd5b505afa158015611195573d6000803e3d6000fd5b505050506040513d601f19601f820116820180604052506111b99190810190611ffb565b6001546040516370a0823160e01b81526001600160a01b03909116906370a08231906111e990309060040161227b565b60206040518083038186803b15801561120157600080fd5b505afa158015611215573d6000803e3d6000fd5b505050506040513d601f19601f820116820180604052506112399190810190611ffb565b019190911491505090565b6001546040516335313c2160e11b81526000916001600160a01b031690636a6278429061127590859060040161227b565b602060405180830381600087803b15801561128f57600080fd5b505af11580156112a3573d6000803e3d6000fd5b505050506040513d601f19601f820116820180604052506112c79190810190611ffb565b90506112d1611cff565b919050565b60085481565b60076020526000908152604090205481565b6001546040516370a0823160e01b81526001600160a01b03909116906370a082319061131e90309060040161227b565b60206040518083038186803b15801561133657600080fd5b505afa15801561134a573d6000803e3d6000fd5b505050506040513d601f19601f8201168201806040525061136e9190810190611ffb565b6113775761156b565b600180546040516370a0823160e01b815261140592849290916001600160a01b03909116906370a08231906113b090309060040161227b565b60206040518083038186803b1580156113c857600080fd5b505afa1580156113dc573d6000803e3d6000fd5b505050506040513d601f19601f820116820180604052506114009190810190611ffb565b611c0c565b60015460405163a9059cbb60e01b81529192506001600160a01b03169063a9059cbb906114389083908590600401612297565b602060405180830381600087803b15801561145257600080fd5b505af1158015611466573d6000803e3d6000fd5b505050506040513d601f19601f8201168201806040525061148a9190810190611f72565b5060015460405163226bf2d160e21b81526001600160a01b03909116906389afcb44906114bb90309060040161227b565b6040805180830381600087803b1580156114d457600080fd5b505af11580156114e8573d6000803e3d6000fd5b505050506040513d601f19601f8201168201806040525061150c9190810190612053565b5050600654611521908263ffffffff611cdc16565b60065530600090815260076020526040902054611544908263ffffffff611de016565b30600090815260076020526040902055600854611567908263ffffffff611de016565b6008555b50565b6002546040516370a0823160e01b81526116089184916103e891600a916001600160a01b03909116906370a08231906115ab90309060040161227b565b60206040518083038186803b1580156115c357600080fd5b505afa1580156115d7573d6000803e3d6000fd5b505050506040513d601f19601f820116820180604052506115fb9190810190611ffb565b8161160257fe5b04611c0c565b6003546040516370a0823160e01b81529193506116469183916103e891600a916001600160a01b0316906370a08231906115ab90309060040161227b565b60025460015460405163a9059cbb60e01b81529293506001600160a01b039182169263a9059cbb9261167e9216908690600401612297565b602060405180830381600087803b15801561169857600080fd5b505af11580156116ac573d6000803e3d6000fd5b505050506040513d601f19601f820116820180604052506116d09190810190611f72565b5060035460015460405163a9059cbb60e01b81526001600160a01b039283169263a9059cbb92611707929116908590600401612297565b602060405180830381600087803b15801561172157600080fd5b505af1158015611735573d6000803e3d6000fd5b505050506040513d601f19601f820116820180604052506117599190810190611f72565b506001546040516335313c2160e11b81526000916001600160a01b031690636a6278429061178b90309060040161227b565b602060405180830381600087803b1580156117a557600080fd5b505af11580156117b9573d6000803e3d6000fd5b505050506040513d601f19601f820116820180604052506117dd9190810190611ffb565b6005549091506117f3908263ffffffff611cdc16565b60055530600090815260076020526040902054611816908263ffffffff611cdc16565b30600090815260076020526040902055600854611839908263ffffffff611cdc16565b600855505050565b600154604080516318160ddd60e01b815290516000926001600160a01b0316916318160ddd916004808301926020929190829003018186803b15801561188657600080fd5b505afa15801561189a573d6000803e3d6000fd5b505050506040513d601f19601f820116820180604052506118be9190810190611ffb565b6118ca575060016105ef565b60006118e3600654600554611de090919063ffffffff16565b6001546040516370a0823160e01b8152919250600091611921916103e8916001600160a01b03909116906370a0823190610b4290309060040161227b565b90506105ea82826103e8611e03565b6001546001600160a01b031681565b60065481565b6103e881565b6000546001600160a01b031681565b6003546001600160a01b031681565b60045481565b60055481565b6000806000600160009054906101000a90046001600160a01b03166001600160a01b0316630902f1ac6040518163ffffffff1660e01b815260040160606040518083038186803b1580156119c857600080fd5b505afa1580156119dc573d6000803e3d6000fd5b505050506040513d601f19601f82011682018060405250611a009190810190611f90565b5091509150816001600160701b031660001480611a2457506001600160701b038116155b15611a34576001925050506105ef565b6000611a526001600160701b0384811690841663ffffffff611bcf16565b905060045481101580611a655750600454155b935050505090565b600154604080516318160ddd60e01b815290516000926001600160a01b0316916318160ddd916004808301926020929190829003018186803b158015611ab257600080fd5b505afa158015611ac6573d6000803e3d6000fd5b505050506040513d601f19601f82011682018060405250611aea9190810190611ffb565b611af6575060016105ef565b6001546040516370a0823160e01b81526103e8916001600160a01b0316906370a0823190611b2990600090600401612289565b60206040518083038186803b158015611b4157600080fd5b505afa158015611b55573d6000803e3d6000fd5b505050506040513d601f19601f82011682018060405250611b799190810190611ffb565b14905090565b600160009054906101000a90046001600160a01b03166001600160a01b031663fff6cae96040518163ffffffff1660e01b8152600401600060405180830381600087803b15801561063c57600080fd5b6000811580611bea57505080820282828281611be757fe5b04145b611c065760405162461bcd60e51b8152600401610356906122de565b92915050565b6000828211611c1c575081611c30565b8282036001018481611c2a57fe5b06830190505b9392505050565b6000808411611c585760405162461bcd60e51b81526004016103569061230e565b600083118015611c685750600082115b611c845760405162461bcd60e51b81526004016103569061231e565b6000611ca86103e8611c9c868863ffffffff611bcf16565b9063ffffffff611bcf16565b90506000611cc26103e5611c9c868963ffffffff611de016565b9050808281611ccd57fe5b04600101925050509392505050565b80820182811015611c065760405162461bcd60e51b8152600401610356906122ee565b600454611dde57600080600160009054906101000a90046001600160a01b03166001600160a01b0316630902f1ac6040518163ffffffff1660e01b815260040160606040518083038186803b158015611d5757600080fd5b505afa158015611d6b573d6000803e3d6000fd5b505050506040513d601f19601f82011682018060405250611d8f9190810190611f90565b50915091506000826001600160701b0316118015611db657506000816001600160701b0316115b15611ddb57611dd76001600160701b0383811690831663ffffffff611bcf16565b6004555b50505b565b80820382811115611c065760405162461bcd60e51b8152600401610356906122ce565b600082841115611e275781611e1e858563ffffffff611de016565b11159050611c30565b81611e1e848663ffffffff611de016565b8035611c0681612416565b8035611c068161242a565b8051611c068161242a565b60008083601f840112611e6b57600080fd5b50813567ffffffffffffffff811115611e8357600080fd5b602083019150836001820283011115611e9b57600080fd5b9250929050565b8051611c0681612433565b8035611c068161243c565b8051611c068161243c565b8051611c0681612445565b600060208284031215611ee057600080fd5b6000611eec8484611e38565b949350505050565b600080600080600060808688031215611f0c57600080fd5b6000611f188888611e38565b9550506020611f2988828901611ead565b9450506040611f3a88828901611ead565b935050606086013567ffffffffffffffff811115611f5757600080fd5b611f6388828901611e59565b92509250509295509295909350565b600060208284031215611f8457600080fd5b6000611eec8484611e4e565b600080600060608486031215611fa557600080fd5b6000611fb18686611ea2565b9350506020611fc286828701611ea2565b9250506040611fd386828701611ec3565b9150509250925092565b600060208284031215611fef57600080fd5b6000611eec8484611ead565b60006020828403121561200d57600080fd5b6000611eec8484611eb8565b6000806040838503121561202c57600080fd5b60006120388585611ead565b925050602061204985828601611ead565b9150509250929050565b6000806040838503121561206657600080fd5b60006120728585611eb8565b925050602061204985828601611eb8565b60008060006060848603121561209857600080fd5b60006120a48686611ead565b93505060206120b586828701611ead565b9250506040611fd386828701611e43565b6120cf816123ce565b82525050565b6120cf8161239d565b6120cf816123a8565b60006120f282612390565b6120fc8185612394565b935061210c8185602086016123e0565b6121158161240c565b9093019392505050565b6120cf816123d5565b6000612135601583612394565b7464732d6d6174682d7375622d756e646572666c6f7760581b815260200192915050565b6000612166601483612394565b7364732d6d6174682d6d756c2d6f766572666c6f7760601b815260200192915050565b6000612196601483612394565b7364732d6d6174682d6164642d6f766572666c6f7760601b815260200192915050565b60006121c6600e83612394565b6d24b73b30b634b21031b0b63632b960911b815260200192915050565b60006121f0601a83612394565b7f494e53554646494349454e545f4f55545055545f414d4f554e54000000000000815260200192915050565b6000612229601683612394565b75494e53554646494349454e545f4c495155494449545960501b815260200192915050565b600061225b600883612394565b6763616c6c6261636b60c01b815260200192915050565b6120cf816105ef565b60208101611c0682846120d5565b60208101611c0682846120c6565b604081016122a582856120d5565b611c306020830184612272565b60208101611c0682846120de565b60208101611c06828461211f565b60208082528101611c0681612128565b60208082528101611c0681612159565b60208082528101611c0681612189565b60208082528101611c06816121b9565b60208082528101611c06816121e3565b60208082528101611c068161221c565b60208082528101611c068161224e565b60208101611c068284612272565b6080810161235a8287612272565b6123676020830186612272565b61237460408301856120d5565b818103606083015261238681846120e7565b9695505050505050565b5190565b90815260200190565b6000611c06826123b9565b151590565b6001600160701b031690565b6001600160a01b031690565b63ffffffff1690565b6000611c06825b6000611c068261239d565b60005b838110156123fb5781810151838201526020016123e3565b838111156106505750506000910152565b601f01601f191690565b61241f8161239d565b811461156b57600080fd5b61241f816123a8565b61241f816123ad565b61241f816105ef565b61241f816123c556fea365627a7a72315820547dc9c1d4a111af7788e2c5ce476c1d41fd57c53a2937e8a88def11973a68a46c6578706572696d656e74616cf564736f6c63430005100040608060405234801561001057600080fd5b50604051612aa9380380612aa98339818101604052602081101561003357600080fd5b5051600180546001600160a01b0319166001600160a01b03909216919091179055612a46806100636000396000f3fe608060405234801561001057600080fd5b50600436106100885760003560e01c8063a2e74af61161005b578063a2e74af6146100f0578063c9c6539614610118578063e6a4390514610146578063f46901ed1461017457610088565b8063017e7e581461008d578063094b7415146100b15780631e3dd18b146100b9578063574f2ba3146100d6575b600080fd5b61009561019a565b604080516001600160a01b039092168252519081900360200190f35b6100956101a9565b610095600480360360208110156100cf57600080fd5b50356101b8565b6100de6101df565b60408051918252519081900360200190f35b6101166004803603602081101561010657600080fd5b50356001600160a01b03166101e5565b005b6100956004803603604081101561012e57600080fd5b506001600160a01b038135811691602001351661025d565b6100956004803603604081101561015c57600080fd5b506001600160a01b038135811691602001351661058e565b6101166004803603602081101561018a57600080fd5b50356001600160a01b03166105b4565b6000546001600160a01b031681565b6001546001600160a01b031681565b600381815481106101c557fe5b6000918252602090912001546001600160a01b0316905081565b60035490565b6001546001600160a01b0316331461023b576040805162461bcd60e51b81526020600482015260146024820152732ab734b9bbb0b82b191d102327a92124a22222a760611b604482015290519081900360640190fd5b600180546001600160a01b0319166001600160a01b0392909216919091179055565b6000816001600160a01b0316836001600160a01b031614156102c6576040805162461bcd60e51b815260206004820152601e60248201527f556e697377617056323a204944454e544943414c5f4144445245535345530000604482015290519081900360640190fd5b600080836001600160a01b0316856001600160a01b0316106102e95783856102ec565b84845b90925090506001600160a01b03821661034c576040805162461bcd60e51b815260206004820152601760248201527f556e697377617056323a205a45524f5f41444452455353000000000000000000604482015290519081900360640190fd5b6001600160a01b038281166000908152600260209081526040808320858516845290915290205416156103bf576040805162461bcd60e51b8152602060048201526016602482015275556e697377617056323a20504149525f45584953545360501b604482015290519081900360640190fd5b6060604051806020016103d19061062c565b6020820181038252601f19601f8201166040525090506000838360405160200180836001600160a01b03166001600160a01b031660601b8152601401826001600160a01b03166001600160a01b031660601b815260140192505050604051602081830303815290604052805190602001209050808251602084016000f56040805163485cc95560e01b81526001600160a01b038781166004830152868116602483015291519297509087169163485cc9559160448082019260009290919082900301818387803b1580156104a457600080fd5b505af11580156104b8573d6000803e3d6000fd5b505050506001600160a01b0384811660008181526002602081815260408084208987168086529083528185208054978d166001600160a01b031998891681179091559383528185208686528352818520805488168517905560038054600181018255958190527fc2575a0e9e593c00f959f8c92f12db2869c3395a3b0502d05e2516446f71f85b90950180549097168417909655925483519283529082015281517f0d3648bd0f6ba80134a33ba9275ac585d9d315f0ad8355cddefde31afa28d0e9929181900390910190a35050505092915050565b60026020908152600092835260408084209091529082529020546001600160a01b031681565b6001546001600160a01b0316331461060a576040805162461bcd60e51b81526020600482015260146024820152732ab734b9bbb0b82b191d102327a92124a22222a760611b604482015290519081900360640190fd5b600080546001600160a01b0319166001600160a01b0392909216919091179055565b6123d88061063a8339019056fe60806040526001600c5534801561001557600080fd5b5060405146908060526123868239604080519182900360520182208282018252600a8352692ab734b9bbb0b8102b1960b11b6020938401528151808301835260018152603160f81b908401528151808401919091527fbfcc8ef98ffbf7b6c3fec7bf5185b566b9863e35a9d83acd49ad6824b5969738818301527fc89efdaa54c0f20c7adf612882df0950f5a951637e0307cdcb4c672f298b8bc6606082015260808101949094523060a0808601919091528151808603909101815260c09094019052825192019190912060035550600580546001600160a01b03191633179055612281806101056000396000f3fe608060405234801561001057600080fd5b50600436106101a95760003560e01c80636a627842116100f9578063ba9a7a5611610097578063d21220a711610071578063d21220a714610534578063d505accf1461053c578063dd62ed3e1461058d578063fff6cae9146105bb576101a9565b8063ba9a7a56146104fe578063bc25cf7714610506578063c45a01551461052c576101a9565b80637ecebe00116100d35780637ecebe001461046557806389afcb441461048b57806395d89b41146104ca578063a9059cbb146104d2576101a9565b80636a6278421461041157806370a08231146104375780637464fc3d1461045d576101a9565b806323b872dd116101665780633644e515116101405780633644e515146103cb578063485cc955146103d35780635909c0d5146104015780635a3d549314610409576101a9565b806323b872dd1461036f57806330adf81f146103a5578063313ce567146103ad576101a9565b8063022c0d9f146101ae57806306fdde031461023c5780630902f1ac146102b9578063095ea7b3146102f15780630dfe16811461033157806318160ddd14610355575b600080fd5b61023a600480360360808110156101c457600080fd5b8135916020810135916001600160a01b0360408301351691908101906080810160608201356401000000008111156101fb57600080fd5b82018360208201111561020d57600080fd5b8035906020019184600183028401116401000000008311171561022f57600080fd5b5090925090506105c3565b005b610244610afe565b6040805160208082528351818301528351919283929083019185019080838360005b8381101561027e578181015183820152602001610266565b50505050905090810190601f1680156102ab5780820380516001836020036101000a031916815260200191505b509250505060405180910390f35b6102c1610b24565b604080516001600160701b03948516815292909316602083015263ffffffff168183015290519081900360600190f35b61031d6004803603604081101561030757600080fd5b506001600160a01b038135169060200135610b4e565b604080519115158252519081900360200190f35b610339610b65565b604080516001600160a01b039092168252519081900360200190f35b61035d610b74565b60408051918252519081900360200190f35b61031d6004803603606081101561038557600080fd5b506001600160a01b03813581169160208101359091169060400135610b7a565b61035d610c14565b6103b5610c38565b6040805160ff9092168252519081900360200190f35b61035d610c3d565b61023a600480360360408110156103e957600080fd5b506001600160a01b0381358116916020013516610c43565b61035d610cc7565b61035d610ccd565b61035d6004803603602081101561042757600080fd5b50356001600160a01b0316610cd3565b61035d6004803603602081101561044d57600080fd5b50356001600160a01b0316610fd3565b61035d610fe5565b61035d6004803603602081101561047b57600080fd5b50356001600160a01b0316610feb565b6104b1600480360360208110156104a157600080fd5b50356001600160a01b0316610ffd565b6040805192835260208301919091528051918290030190f35b6102446113a3565b61031d600480360360408110156104e857600080fd5b506001600160a01b0381351690602001356113c5565b61035d6113d2565b61023a6004803603602081101561051c57600080fd5b50356001600160a01b03166113d8565b610339611543565b610339611552565b61023a600480360360e081101561055257600080fd5b506001600160a01b03813581169160208101359091169060408101359060608101359060ff6080820135169060a08101359060c00135611561565b61035d600480360360408110156105a357600080fd5b506001600160a01b0381358116916020013516611763565b61023a611780565b600c5460011461060e576040805162461bcd60e51b8152602060048201526011602482015270155b9a5cddd85c158c8e881313d0d2d151607a1b604482015290519081900360640190fd5b6000600c55841515806106215750600084115b61065c5760405162461bcd60e51b81526004018080602001828103825260258152602001806121936025913960400191505060405180910390fd5b600080610667610b24565b5091509150816001600160701b03168710801561068c5750806001600160701b031686105b6106c75760405162461bcd60e51b81526004018080602001828103825260218152602001806121dc6021913960400191505060405180910390fd5b60065460075460009182916001600160a01b039182169190811690891682148015906107055750806001600160a01b0316896001600160a01b031614155b61074e576040805162461bcd60e51b8152602060048201526015602482015274556e697377617056323a20494e56414c49445f544f60581b604482015290519081900360640190fd5b8a1561075f5761075f828a8d6118e2565b891561077057610770818a8c6118e2565b861561082b57886001600160a01b03166310d1e85c338d8d8c8c6040518663ffffffff1660e01b815260040180866001600160a01b03166001600160a01b03168152602001858152602001848152602001806020018281038252848482818152602001925080828437600081840152601f19601f8201169050808301925050509650505050505050600060405180830381600087803b15801561081257600080fd5b505af1158015610826573d6000803e3d6000fd5b505050505b604080516370a0823160e01b815230600482015290516001600160a01b038416916370a08231916024808301926020929190829003018186803b15801561087157600080fd5b505afa158015610885573d6000803e3d6000fd5b505050506040513d602081101561089b57600080fd5b5051604080516370a0823160e01b815230600482015290519195506001600160a01b038316916370a0823191602480820192602092909190829003018186803b1580156108e757600080fd5b505afa1580156108fb573d6000803e3d6000fd5b505050506040513d602081101561091157600080fd5b5051925060009150506001600160701b0385168a90038311610934576000610943565b89856001600160701b03160383035b9050600089856001600160701b031603831161096057600061096f565b89856001600160701b03160383035b905060008211806109805750600081115b6109bb5760405162461bcd60e51b81526004018080602001828103825260248152602001806121b86024913960400191505060405180910390fd5b60006109ef6109d184600363ffffffff611a7c16565b6109e3876103e863ffffffff611a7c16565b9063ffffffff611adf16565b90506000610a076109d184600363ffffffff611a7c16565b9050610a38620f4240610a2c6001600160701b038b8116908b1663ffffffff611a7c16565b9063ffffffff611a7c16565b610a48838363ffffffff611a7c16565b1015610a8a576040805162461bcd60e51b815260206004820152600c60248201526b556e697377617056323a204b60a01b604482015290519081900360640190fd5b5050610a9884848888611b2f565b60408051838152602081018390528082018d9052606081018c905290516001600160a01b038b169133917fd78ad95fa46c994b6551d0da85fc275fe613ce37657fb8d5e3d130840159d8229181900360800190a350506001600c55505050505050505050565b6040518060400160405280600a8152602001692ab734b9bbb0b8102b1960b11b81525081565b6008546001600160701b0380821692600160701b830490911691600160e01b900463ffffffff1690565b6000610b5b338484611cf4565b5060015b92915050565b6006546001600160a01b031681565b60005481565b6001600160a01b038316600090815260026020908152604080832033845290915281205460001914610bff576001600160a01b0384166000908152600260209081526040808320338452909152902054610bda908363ffffffff611adf16565b6001600160a01b03851660009081526002602090815260408083203384529091529020555b610c0a848484611d56565b5060019392505050565b7f6e71edae12b1b97f4d1f60370fef10105fa2faae0126114a169c64845d6126c981565b601281565b60035481565b6005546001600160a01b03163314610c99576040805162461bcd60e51b81526020600482015260146024820152732ab734b9bbb0b82b191d102327a92124a22222a760611b604482015290519081900360640190fd5b600680546001600160a01b039384166001600160a01b03199182161790915560078054929093169116179055565b60095481565b600a5481565b6000600c54600114610d20576040805162461bcd60e51b8152602060048201526011602482015270155b9a5cddd85c158c8e881313d0d2d151607a1b604482015290519081900360640190fd5b6000600c81905580610d30610b24565b50600654604080516370a0823160e01b815230600482015290519395509193506000926001600160a01b03909116916370a08231916024808301926020929190829003018186803b158015610d8457600080fd5b505afa158015610d98573d6000803e3d6000fd5b505050506040513d6020811015610dae57600080fd5b5051600754604080516370a0823160e01b815230600482015290519293506000926001600160a01b03909216916370a0823191602480820192602092909190829003018186803b158015610e0157600080fd5b505afa158015610e15573d6000803e3d6000fd5b505050506040513d6020811015610e2b57600080fd5b505190506000610e4a836001600160701b03871663ffffffff611adf16565b90506000610e67836001600160701b03871663ffffffff611adf16565b90506000610e758787611e10565b60005490915080610eb257610e9e6103e86109e3610e99878763ffffffff611a7c16565b611f6e565b9850610ead60006103e8611fc0565b610f01565b610efe6001600160701b038916610ecf868463ffffffff611a7c16565b81610ed657fe5b046001600160701b038916610ef1868563ffffffff611a7c16565b81610ef857fe5b04612056565b98505b60008911610f405760405162461bcd60e51b81526004018080602001828103825260288152602001806122256028913960400191505060405180910390fd5b610f4a8a8a611fc0565b610f5686868a8a611b2f565b8115610f8657600854610f82906001600160701b0380821691600160701b90041663ffffffff611a7c16565b600b555b6040805185815260208101859052815133927f4c209b5fc8ad50758f13e2e1088ba56a560dff690a1c6fef26394f4c03821c4f928290030190a250506001600c5550949695505050505050565b60016020526000908152604090205481565b600b5481565b60046020526000908152604090205481565b600080600c5460011461104b576040805162461bcd60e51b8152602060048201526011602482015270155b9a5cddd85c158c8e881313d0d2d151607a1b604482015290519081900360640190fd5b6000600c8190558061105b610b24565b50600654600754604080516370a0823160e01b815230600482015290519496509294506001600160a01b039182169391169160009184916370a08231916024808301926020929190829003018186803b1580156110b757600080fd5b505afa1580156110cb573d6000803e3d6000fd5b505050506040513d60208110156110e157600080fd5b5051604080516370a0823160e01b815230600482015290519192506000916001600160a01b038516916370a08231916024808301926020929190829003018186803b15801561112f57600080fd5b505afa158015611143573d6000803e3d6000fd5b505050506040513d602081101561115957600080fd5b5051306000908152600160205260408120549192506111788888611e10565b6000549091508061118f848763ffffffff611a7c16565b8161119657fe5b049a50806111aa848663ffffffff611a7c16565b816111b157fe5b04995060008b1180156111c4575060008a115b6111ff5760405162461bcd60e51b81526004018080602001828103825260288152602001806121fd6028913960400191505060405180910390fd5b611209308461206e565b611214878d8d6118e2565b61121f868d8c6118e2565b604080516370a0823160e01b815230600482015290516001600160a01b038916916370a08231916024808301926020929190829003018186803b15801561126557600080fd5b505afa158015611279573d6000803e3d6000fd5b505050506040513d602081101561128f57600080fd5b5051604080516370a0823160e01b815230600482015290519196506001600160a01b038816916370a0823191602480820192602092909190829003018186803b1580156112db57600080fd5b505afa1580156112ef573d6000803e3d6000fd5b505050506040513d602081101561130557600080fd5b5051935061131585858b8b611b2f565b811561134557600854611341906001600160701b0380821691600160701b90041663ffffffff611a7c16565b600b555b604080518c8152602081018c905281516001600160a01b038f169233927fdccd412f0b1252819cb1fd330b93224ca42612892bb3f4f789976e6d81936496929081900390910190a35050505050505050506001600c81905550915091565b604051806040016040528060068152602001652aa72496ab1960d11b81525081565b6000610b5b338484611d56565b6103e881565b600c54600114611423576040805162461bcd60e51b8152602060048201526011602482015270155b9a5cddd85c158c8e881313d0d2d151607a1b604482015290519081900360640190fd5b6000600c55600654600754600854604080516370a0823160e01b815230600482015290516001600160a01b0394851694909316926114d292859287926114cd926001600160701b03169185916370a0823191602480820192602092909190829003018186803b15801561149557600080fd5b505afa1580156114a9573d6000803e3d6000fd5b505050506040513d60208110156114bf57600080fd5b50519063ffffffff611adf16565b6118e2565b600854604080516370a0823160e01b8152306004820152905161153992849287926114cd92600160701b90046001600160701b0316916001600160a01b038616916370a0823191602480820192602092909190829003018186803b15801561149557600080fd5b50506001600c5550565b6005546001600160a01b031681565b6007546001600160a01b031681565b428410156115ab576040805162461bcd60e51b8152602060048201526012602482015271155b9a5cddd85c158c8e881156141254915160721b604482015290519081900360640190fd5b6003546001600160a01b0380891660008181526004602090815260408083208054600180820190925582517f6e71edae12b1b97f4d1f60370fef10105fa2faae0126114a169c64845d6126c98186015280840196909652958d166060860152608085018c905260a085019590955260c08085018b90528151808603909101815260e08501825280519083012061190160f01b6101008601526101028501969096526101228085019690965280518085039096018652610142840180825286519683019690962095839052610162840180825286905260ff89166101828501526101a284018890526101c28401879052519193926101e280820193601f1981019281900390910190855afa1580156116c6573d6000803e3d6000fd5b5050604051601f1901519150506001600160a01b038116158015906116fc5750886001600160a01b0316816001600160a01b0316145b61174d576040805162461bcd60e51b815260206004820152601c60248201527f556e697377617056323a20494e56414c49445f5349474e415455524500000000604482015290519081900360640190fd5b611758898989611cf4565b505050505050505050565b600260209081526000928352604080842090915290825290205481565b600c546001146117cb576040805162461bcd60e51b8152602060048201526011602482015270155b9a5cddd85c158c8e881313d0d2d151607a1b604482015290519081900360640190fd5b6000600c55600654604080516370a0823160e01b815230600482015290516118db926001600160a01b0316916370a08231916024808301926020929190829003018186803b15801561181c57600080fd5b505afa158015611830573d6000803e3d6000fd5b505050506040513d602081101561184657600080fd5b5051600754604080516370a0823160e01b815230600482015290516001600160a01b03909216916370a0823191602480820192602092909190829003018186803b15801561189357600080fd5b505afa1580156118a7573d6000803e3d6000fd5b505050506040513d60208110156118bd57600080fd5b50516008546001600160701b0380821691600160701b900416611b2f565b6001600c55565b604080518082018252601981527f7472616e7366657228616464726573732c75696e74323536290000000000000060209182015281516001600160a01b0385811660248301526044808301869052845180840390910181526064909201845291810180516001600160e01b031663a9059cbb60e01b1781529251815160009460609489169392918291908083835b6020831061198f5780518252601f199092019160209182019101611970565b6001836020036101000a0380198251168184511680821785525050505050509050019150506000604051808303816000865af19150503d80600081146119f1576040519150601f19603f3d011682016040523d82523d6000602084013e6119f6565b606091505b5091509150818015611a24575080511580611a245750808060200190516020811015611a2157600080fd5b50515b611a75576040805162461bcd60e51b815260206004820152601a60248201527f556e697377617056323a205452414e534645525f4641494c4544000000000000604482015290519081900360640190fd5b5050505050565b6000811580611a9757505080820282828281611a9457fe5b04145b610b5f576040805162461bcd60e51b815260206004820152601460248201527364732d6d6174682d6d756c2d6f766572666c6f7760601b604482015290519081900360640190fd5b80820382811115610b5f576040805162461bcd60e51b815260206004820152601560248201527464732d6d6174682d7375622d756e646572666c6f7760581b604482015290519081900360640190fd5b6001600160701b038411801590611b4d57506001600160701b038311155b611b94576040805162461bcd60e51b8152602060048201526013602482015272556e697377617056323a204f564552464c4f5760681b604482015290519081900360640190fd5b60085463ffffffff42811691600160e01b90048116820390811615801590611bc457506001600160701b03841615155b8015611bd857506001600160701b03831615155b15611c49578063ffffffff16611c0685611bf18661210c565b6001600160e01b03169063ffffffff61211e16565b600980546001600160e01b03929092169290920201905563ffffffff8116611c3184611bf18761210c565b600a80546001600160e01b0392909216929092020190555b600880546dffffffffffffffffffffffffffff19166001600160701b03888116919091176dffffffffffffffffffffffffffff60701b1916600160701b8883168102919091176001600160e01b0316600160e01b63ffffffff871602179283905560408051848416815291909304909116602082015281517f1c411e9a96e071241c2f21f7726b17ae89e3cab4c78be50e062b03a9fffbbad1929181900390910190a1505050505050565b6001600160a01b03808416600081815260026020908152604080832094871680845294825291829020859055815185815291517f8c5be1e5ebec7d5bd14f71427d1e84f3dd0314c0f7b2291e5b200ac8c7c3b9259281900390910190a3505050565b6001600160a01b038316600090815260016020526040902054611d7f908263ffffffff611adf16565b6001600160a01b038085166000908152600160205260408082209390935590841681522054611db4908263ffffffff61214316565b6001600160a01b0380841660008181526001602090815260409182902094909455805185815290519193928716927fddf252ad1be2c89b69c2b068fc378daa952ba7f163c4a11628f55a4df523b3ef92918290030190a3505050565b600080600560009054906101000a90046001600160a01b03166001600160a01b031663017e7e586040518163ffffffff1660e01b815260040160206040518083038186803b158015611e6157600080fd5b505afa158015611e75573d6000803e3d6000fd5b505050506040513d6020811015611e8b57600080fd5b5051600b546001600160a01b038216158015945091925090611f5a578015611f55576000611ece610e996001600160701b0388811690881663ffffffff611a7c16565b90506000611edb83611f6e565b905080821115611f52576000611f09611efa848463ffffffff611adf16565b6000549063ffffffff611a7c16565b90506000611f2e83611f2286600563ffffffff611a7c16565b9063ffffffff61214316565b90506000818381611f3b57fe5b0490508015611f4e57611f4e8782611fc0565b5050505b50505b611f66565b8015611f66576000600b555b505092915050565b60006003821115611fb1575080600160028204015b81811015611fab57809150600281828581611f9a57fe5b040181611fa357fe5b049050611f83565b50611fbb565b8115611fbb575060015b919050565b600054611fd3908263ffffffff61214316565b60009081556001600160a01b038316815260016020526040902054611ffe908263ffffffff61214316565b6001600160a01b03831660008181526001602090815260408083209490945583518581529351929391927fddf252ad1be2c89b69c2b068fc378daa952ba7f163c4a11628f55a4df523b3ef9281900390910190a35050565b60008183106120655781612067565b825b9392505050565b6001600160a01b038216600090815260016020526040902054612097908263ffffffff611adf16565b6001600160a01b038316600090815260016020526040812091909155546120c4908263ffffffff611adf16565b60009081556040805183815290516001600160a01b038516917fddf252ad1be2c89b69c2b068fc378daa952ba7f163c4a11628f55a4df523b3ef919081900360200190a35050565b6001600160701b0316600160701b0290565b60006001600160701b0382166001600160e01b0384168161213b57fe5b049392505050565b80820182811015610b5f576040805162461bcd60e51b815260206004820152601460248201527364732d6d6174682d6164642d6f766572666c6f7760601b604482015290519081900360640190fdfe556e697377617056323a20494e53554646494349454e545f4f55545055545f414d4f554e54556e697377617056323a20494e53554646494349454e545f494e5055545f414d4f554e54556e697377617056323a20494e53554646494349454e545f4c4951554944495459556e697377617056323a20494e53554646494349454e545f4c49515549444954595f4255524e4544556e697377617056323a20494e53554646494349454e545f4c49515549444954595f4d494e544544a265627a7a72315820d223800de05970270563cc8848ff097f07686b3cdb89e59e25cbe8b52639262064736f6c63430005100032454950373132446f6d61696e28737472696e67206e616d652c737472696e672076657273696f6e2c75696e7432353620636861696e49642c6164647265737320766572696679696e67436f6e747261637429a265627a7a72315820736143f1c2875544f0c98e663b1a8ff949e11a3384357bafae59353ce281e1fc64736f6c63430005100032608060405234801561001057600080fd5b50604051610afb380380610afb8339818101604052602081101561003357600080fd5b50516040514690806052610aa98239604080519182900360520182208282018252600a8352692ab734b9bbb0b8102b1960b11b6020938401528151808301835260018152603160f81b908401528151808401919091527fbfcc8ef98ffbf7b6c3fec7bf5185b566b9863e35a9d83acd49ad6824b5969738818301527fc89efdaa54c0f20c7adf612882df0950f5a951637e0307cdcb4c672f298b8bc6606082015260808101949094523060a0808601919091528151808603909101815260c0909401905282519201919091206003555061011633826001600160e01b0361011c16565b5061021c565b610135816000546101be60201b6107fa1790919060201c565b60009081556001600160a01b0383168152600160209081526040909120546101669183906107fa6101be821b17901c565b6001600160a01b03831660008181526001602090815260408083209490945583518581529351929391927fddf252ad1be2c89b69c2b068fc378daa952ba7f163c4a11628f55a4df523b3ef9281900390910190a35050565b80820182811015610216576040805162461bcd60e51b815260206004820152601460248201527f64732d6d6174682d6164642d6f766572666c6f77000000000000000000000000604482015290519081900360640190fd5b92915050565b61087e8061022b6000396000f3fe608060405234801561001057600080fd5b50600436106100cf5760003560e01c80633644e5151161008c57806395d89b411161006657806395d89b411461025b578063a9059cbb14610263578063d505accf1461028f578063dd62ed3e146102e2576100cf565b80633644e5151461020757806370a082311461020f5780637ecebe0014610235576100cf565b806306fdde03146100d4578063095ea7b31461015157806318160ddd1461019157806323b872dd146101ab57806330adf81f146101e1578063313ce567146101e9575b600080fd5b6100dc610310565b6040805160208082528351818301528351919283929083019185019080838360005b838110156101165781810151838201526020016100fe565b50505050905090810190601f1680156101435780820380516001836020036101000a031916815260200191505b509250505060405180910390f35b61017d6004803603604081101561016757600080fd5b506001600160a01b038135169060200135610336565b604080519115158252519081900360200190f35b61019961034d565b60408051918252519081900360200190f35b61017d600480360360608110156101c157600080fd5b506001600160a01b03813581169160208101359091169060400135610353565b6101996103ed565b6101f1610411565b6040805160ff9092168252519081900360200190f35b610199610416565b6101996004803603602081101561022557600080fd5b50356001600160a01b031661041c565b6101996004803603602081101561024b57600080fd5b50356001600160a01b031661042e565b6100dc610440565b61017d6004803603604081101561027957600080fd5b506001600160a01b038135169060200135610462565b6102e0600480360360e08110156102a557600080fd5b506001600160a01b03813581169160208101359091169060408101359060608101359060ff6080820135169060a08101359060c0013561046f565b005b610199600480360360408110156102f857600080fd5b506001600160a01b0381358116916020013516610671565b6040518060400160405280600a8152602001692ab734b9bbb0b8102b1960b11b81525081565b600061034333848461068e565b5060015b92915050565b60005481565b6001600160a01b0383166000908152600260209081526040808320338452909152812054600019146103d8576001600160a01b03841660009081526002602090815260408083203384529091529020546103b3908363ffffffff6106f016565b6001600160a01b03851660009081526002602090815260408083203384529091529020555b6103e3848484610740565b5060019392505050565b7f6e71edae12b1b97f4d1f60370fef10105fa2faae0126114a169c64845d6126c981565b601281565b60035481565b60016020526000908152604090205481565b60046020526000908152604090205481565b604051806040016040528060068152602001652aa72496ab1960d11b81525081565b6000610343338484610740565b428410156104b9576040805162461bcd60e51b8152602060048201526012602482015271155b9a5cddd85c158c8e881156141254915160721b604482015290519081900360640190fd5b6003546001600160a01b0380891660008181526004602090815260408083208054600180820190925582517f6e71edae12b1b97f4d1f60370fef10105fa2faae0126114a169c64845d6126c98186015280840196909652958d166060860152608085018c905260a085019590955260c08085018b90528151808603909101815260e08501825280519083012061190160f01b6101008601526101028501969096526101228085019690965280518085039096018652610142840180825286519683019690962095839052610162840180825286905260ff89166101828501526101a284018890526101c28401879052519193926101e280820193601f1981019281900390910190855afa1580156105d4573d6000803e3d6000fd5b5050604051601f1901519150506001600160a01b0381161580159061060a5750886001600160a01b0316816001600160a01b0316145b61065b576040805162461bcd60e51b815260206004820152601c60248201527f556e697377617056323a20494e56414c49445f5349474e415455524500000000604482015290519081900360640190fd5b61066689898961068e565b505050505050505050565b600260209081526000928352604080842090915290825290205481565b6001600160a01b03808416600081815260026020908152604080832094871680845294825291829020859055815185815291517f8c5be1e5ebec7d5bd14f71427d1e84f3dd0314c0f7b2291e5b200ac8c7c3b9259281900390910190a3505050565b80820382811115610347576040805162461bcd60e51b815260206004820152601560248201527464732d6d6174682d7375622d756e646572666c6f7760581b604482015290519081900360640190fd5b6001600160a01b038316600090815260016020526040902054610769908263ffffffff6106f016565b6001600160a01b03808516600090815260016020526040808220939093559084168152205461079e908263ffffffff6107fa16565b6001600160a01b0380841660008181526001602090815260409182902094909455805185815290519193928716927fddf252ad1be2c89b69c2b068fc378daa952ba7f163c4a11628f55a4df523b3ef92918290030190a3505050565b80820182811015610347576040805162461bcd60e51b815260206004820152601460248201527364732d6d6174682d6164642d6f766572666c6f7760601b604482015290519081900360640190fdfea265627a7a72315820972d8f133553066e6ef8b187097b327e38ba4693f651cf25d80ae5be1605ea5864736f6c63430005100032454950373132446f6d61696e28737472696e67206e616d652c737472696e672076657273696f6e2c75696e7432353620636861696e49642c6164647265737320766572696679696e67436f6e747261637429","linkReferences":{}},"methodIdentifiers":{"MAX_UINT112()":"5e07a099","MINIMUM_LIQUIDITY()":"ba9a7a56","addLiquidity(uint256,uint256)":"9cd441da","factory()":"c45a0155","ghostBalances(address)":"9c71d085","ghostTotalSupply()":"7132b22d","initialK()":"d4748d49","mint(address)":"6a627842","pair()":"a8aa1b31","property_constantProductFormula()":"f10eb765","property_kLastConsistency()":"64c9aa22","property_liquidityTokensConservation()":"a6066586","property_minimumLiquidityLocked()":"fca07d51","property_noOverflowInReserves()":"6062dfb8","property_noTokenLoss()":"32acae41","property_priceAccumulatorIncreases()":"1618fd4b","property_reservesMatchBalances()":"6821e429","property_swapAmountBounds()":"28778ad7","property_totalSupplyConsistency()":"68fe7807","removeLiquidity(uint256)":"9c8f9f23","skim()":"1dd19cb4","swap(uint256,uint256,bool)":"2bec60fe","sync()":"fff6cae9","token0()":"0dfe1681","token1()":"d21220a7","totalLiquidityProvided()":"dfed1348","totalLiquidityRemoved()":"b4b01d8f","uniswapV2Call(address,uint256,uint256,bytes)":"10d1e85c"},"id":12}